:020000040800F2
:10000000586800205D0200082D560008954700083A
:1000100029560008C9110008458C0008000000009E
:100020000000000000000000000000009D0100082A
:100030009B1B000800000000F9010008F98200087D
:1000400077020008770200087702000877020008AC
:1000500077020008770200089D1B0008770200085D
:1000600077020008A71B0008B11B000877020008F0
:10007000770200087702000877020008770200087C
:10008000770200087702000877020008770200086C
:10009000CD1100087702000877020008BB1B00089A
:1000A000770200087702000877020008770200084C
:1000B000FD83000877020008770200087702000835
:1000C000770200087702000877020008770200082C
:1000D000770200087702000877020008218B0008E9
:1000E000770200087702000877020008770200080C
:1000F00077020008770200087702000877020008FC
:1001000077020008770200087702000877020008EB
:1001100077020008770200087702000877020008DB
:1001200077020008770200083D12000877020008F5
:1001300077020008770200087702000877020008BB
:10014000DD11000877020008770200087702000836
:10015000770200087702000877020008770200089B
:10016000770200087702000877020008770200088B
:1001700077020008770200087702000800000000FC
:100180007702000877020008DFF80CD000F05AF977
:100190000048004739B70008586800202C4B196800
:1001A0000868B0E8F04F80F30988BFF36F8F4FF015
:1001B000000080F3118870470000000008480068C4
:1001C000006880F308884FF0000080F3148862B65E
:1001D00061B6BFF34F8FBFF36F8F00DF00BF00BF6B
:1001E00008ED00E0DFF80C00016841F470010160E7
:1001F000704700BF88ED00E0EFF30980BFF36F8F19
:10020000134B1A681EF0100F08BF20ED108A20E96A
:10021000F04F106009B44FF0500080F31188BFF325
:100220004F8FBFF36F8F0CF013FA4FF0000080F385
:10023000118809BC19680868B0E8F04F1EF0100F6B
:1002400008BFB0EC108A80F30988BFF36F8F704746
:10025000DC000020EFF3058070470000064880476F
:1002600006480047FEE7FEE7FEE7FEE7FEE7FEE79B
:10027000FEE7FEE7FEE7FEE7E183000889010008EC
:100280002DE9F05F0546002092469B4688460646CB
:10029000814640241BE0284641464746224600F05E
:1002A00089F853465A46C01A914110D31146184650
:1002B000224600F070F82D1A67EB01084F462246DF
:1002C0000120002100F067F817EB00094E41201EC5
:1002D000A4F10104DFDC484631462A464346BDE826
:1002E000F09F40EA01039B0703D009E008C9121FF1
:1002F00008C0042AFAD203E011F8013B00F8013BE0
:10030000521EF9D27047D2B201E000F8012B491E0B
:10031000FBD270470022F6E710B513460A460446A2
:100320001946FFF7F0FF204610BD421C10F8011BD4
:100330000029FBD1801A704700F0004230F00040E5
:100340000AD0C10D01F56071C0F3160042EA0151F7
:10035000C20840071143704700200146704701F072
:10036000004330B421F0004150EA010206D00A0DEA
:10037000A2F56072C1F31301002A02DC30BC002038
:100380007047440F44EAC104C100E01830BC00EBE0
:10039000C25000F01FB8202A04DB203A00FA02F114
:1003A000002070479140C2F1200320FA03F3194363
:1003B00090407047202A04DB203A21FA02F0002105
:1003C000704721FA02F3D040C2F120029140084365
:1003D000194670470029A8BF7047401C490008BF54
:1003E00020F00100704710B4B0FA80FC00FA0CF065
:1003F00050EA010404BF10BC704749B1CCF120049D
:1004000021FA04F411FA0CF118BF01212143084329
:10041000A3EB0C01CB1D4FEA00614FEA102042BF55
:10042000002010BC704700EBC35010440029A4BF4B
:1004300010BC7047401C490008BF20F0010010BCF0
:1004400070470000064C074D06E0E06840F00103ED
:1004500094E8070098471034AC42F6D3FFF798FEB3
:1004600090CE0008B0CE00082DE9FE4F804681EA0C
:100470000300C00F0C46009021F0004123F000451E
:10048000B8EB0200A94105D24046214690461C46E1
:100490000B46024623F00040104347D0270DC7F318
:1004A0000A00C3F30A510290401A019040286BDA07
:1004B000C3F3130040F4801B0098924620B1002340
:1004C000D2EB030A63EB0B0B01985946C0F14002D3
:1004D0005046FFF760FF06460D4650465946019AC2
:1004E00000F087F910EB08006141002487EA1152FF
:1004F00084EAE7731A4340D0009A62B3019A012A52
:100500004FEA075215DC001B61EB02014FF000427D
:1005100002EA0752CDE90042001C41F58011324643
:100520002B4600F087F903B0BDE8F08F4046214626
:10053000F9E7001B61EB0201001C41F58013001874
:100540005B412018A2F5001747EB030140EAD57084
:10055000B6196D4111E06D084FEA360645EAC075DF
:100560004FEA0752001B61EB0201001C41F58011AC
:1005700049084FEA30000019514132462B4603B07A
:10058000BDE8F04F00F047B9009801224000002379
:10059000D0EB020263EBE073009821464FEAE0746F
:1005A000B8EB000061EB0401E9E783F000435BE78F
:1005B00081F0004158E72DE9FE4F81EA030404F081
:1005C000004421F0004100944FF0000B23F0004361
:1005D00050EA01045ED052EA03045BD0C3F30A542C
:1005E000C1F30A552C44A4F2F3340194A0FB025445
:1005F000C1F3130141F48011C3F3130343F48013D7
:1006000001FB024400FB034E840A970A44EA81542A
:1006100047EA8357A4FB076802958D0A05FB078507
:100620004FEA932C04FB0C542705029D4FEA065811
:1006300047EA1637B5EB08056EEB070C870E920EEE
:1006400047EA811742EA8312A7FB0201B6EB0B01CE
:1006500064EB00042B0D43EA0C335E1844EB1C5092
:10066000DA465146E7FB0201C5F313044FEA0B33A8
:1006700043EA14534FEA0432019C43EA0603A4F10F
:100680000C040294009CCDE900B400F0D3F803B050
:10069000BDE8F08F00200146F9E72DE9F04D81EA31
:1006A000030404F0004B21F0004514464FF0000A0B
:1006B00023F0004150EA050220D054EA01021DD087
:1006C000C5F30A570246C5F31303C1F31300C1F380
:1006D0000A5640F4801543F48013A7EB0608101B5C
:1006E000D64608F2FD3873EB050002D308F1010885
:1006F00001E092185B41B8F1000F03DA00200146D7
:10070000BDE8F08D00204FF48011064684460EE0CF
:10071000171B73EB050705D3121B63EB0503064399
:100720004CEA010C49084FEA300092185B4150EA4C
:100730000107EDD152EA030012D082EA040083EAF5
:100740000501084305D0101BAB4106D2012200234E
:1007500006E000224FF0004302E06FF00102531068
:100760001AEB06004CEB085110EB0A0041EB0B01B1
:10077000BDE8F04D00F04FB80EB5C10F80EAE07053
:100780000844CA07002140F233438DE80E000A46B0
:100790000B4600F04FF803B000BD0EB540F23341F8
:1007A00002910021CDE900110A460B4600F042F803
:1007B00003B000BD70B5C1F30A5201F0004500243A
:1007C000C1F3130140F2FF3341F480119A4201DA80
:1007D000002070BD40F233439A42A2F2334203DC60
:1007E0005242FFF7E7FD00E090402C43F1D0404239
:1007F00070BD202A06DBCB17203A41FA02F043EA0B
:10080000E07306E041FA02F3D040C2F120029140C9
:1008100008431946704710B5141E73F1000408DA36
:10082000401C41F1000192185B411A4301D120F0B4
:10083000010010BD2DE9F04D92469B4611B1B1FA71
:1008400081F202E0B0FA80F220329046FFF7A3FD79
:1008500004460F4640EA0A0041EA0B0153465A4655
:10086000084313D0114653EA010019D0C8F14002E1
:100870005046FFF79FFD05460E46504659464246F4
:10088000FFF789FD084305D0012004E020463946E2
:10089000BDE8F08D0020054346EAE0762C4337435F
:1008A0000A986305E40AA0EB08000022FD0A44EA66
:1008B00047540A3002D500200146E9E70105101926
:1008C0006941DDE9084500196941BDE8F04DA2E73D
:1008D00070B58C1810F8015B15F0070301D110F802
:1008E000013B2A1106D110F8012B03E010F8016B2F
:1008F00001F8016B5B1EF9D12B0705D40023521EB2
:100900000DD401F8013BFAE710F8013BCB1A921C19
:1009100003E013F8015B01F8015B521EF9D5A14217
:10092000D8D3002070BD10B52DED028BB0EE408AFB
:10093000B0EE480A08F0D0F9BDEC028B10BD10B53E
:100940002DED028BB0EE408AF0EE608AF0EE680A80
:10095000B0EE480A08F056FABDEC028B10BD10B597
:100960002DED068BB0EE408A18EE100AFFF7E4FC7E
:1009700041EC1A0BB0EE4A0AF0EE6A0A08F06CFB82
:10098000B0EE409AF0EE609A51EC190BFFF7E7FCDD
:1009900000EE100ABDEC068B10BDF0EE400AF5EE3D
:1009A000C00AF1EE10FA02DDB0EE600A7047B1EE57
:1009B000600AFBE718B19FED020A80ED000A70475C
:1009C0000000000018B1B3EE060A80ED000A70477F
:1009D00070B52DED0C8B84B006460C4615469FED88
:1009E000990AF0EE408A9FED970AB0EE409A9FED8B
:1009F000950AF0EE40BA9FED930AF0EE409A9FED13
:100A0000910AB0EE40AA0EB104B11DB904B0BDEC1C
:100A10000C8B70BD8C48FFF7CDFF8C48FFF7D2FFE1
:100A20008A48D0ED000A9FED8A1A60EE810AB0EE86
:100A3000600A00F02DF9F0EE408A28EEA80AF0EEE8
:100A4000408A8248D0ED000AB0EE001A60EE810ABA
:100A50009FED7F1A60EE810AB0EE600A00F018F98F
:100A6000B0EE409A29EE090AB0EE409ADFED790A1D
:100A7000B7EE000A00EEA80ADFED770A00EEC90A19
:100A8000DFED760A20EE200A754880ED000A6E48F8
:100A900090ED000ADFED730A80EE201AB7EE000A2F
:100AA00031EE000A20EE000A6D48D0ED000A80EE1B
:100AB000801A6D4880ED001A94ED000AB5EEC00A68
:100AC000F1EE10FA0DD194ED010AB5EEC00AF1EE87
:100AD00010FA06D194ED020AB5EEC00AF1EE10FA52
:100AE00046D09FED580AB0EE408A00200190029057
:100AF0000390D4ED000A60EEA00A94ED011AD4ED43
:100B0000011A41EE210A94ED021AD4ED021A41EEC7
:100B1000210AB0EE600A00F0A9F8B0EE408A94ED28
:100B2000000A20EE080A8DED010A94ED010A20EE7C
:100B3000080A8DED020A94ED020A20EE080A8DEDF6
:100B4000030ADDED010AF1EE600AB0EE600AFFF77C
:100B5000EAFEF0EE409A9DED031AF0EE410A9DED9B
:100B6000021AB0EE410AFFF7EAFEB0EE40AA07E033
:100B70009FED340AF0EE409A9FED320AB0EE40AAA3
:100B800095ED000AB5EEC00AF1EE10FA0DD195ED23
:100B9000010AB5EEC00AF1EE10FA06D195ED020A8F
:100BA000B5EEC00AF1EE10FA3CD0B0EE690A00F0E2
:100BB0006FF8B0EE408AB0EE690AFFF7D0FEB0EEF3
:100BC00040DAB0EE4A0A00F063F8F0EE40AAB0EE68
:100BD0004A0AFFF7C4FEB0EE40BA28EE2A0AD5ED65
:100BE000010A20EE200AD5ED000A0DEE200A68EE7B
:100BF0000B0A95ED021A00EE810AB0EE40CA95ED9F
:100C0000010A20EE0B0AD5ED020A0AEEE00AF0EE28
:100C100040CAF0EE6C0AB0EE4C0AFFF790FEF0EE20
:100C200040BA03E09FED070AF0EE40BAB0EE4A1A70
:100C3000F0EE690AB0EE6B0A304609F0EFF800BF3B
:100C4000E4E60000000000007001002074010020B4
:100C500035FA8E3CC1BFAD3B9DF8C5362F7C1C419B
:100C600078010020506CC24A7C01002010B52DEDA7
:100C7000028BB0EE408AB0EE480A08F0C1FAB7EE37
:100C8000001AC1EE000AB0EE600ABDEC028B10BD86
:100C900010B52DED068BB0EE408A18EE100AFFF766
:100CA0004BFB41EC1A0BB0EE4A0AF0EE6A0A08F070
:100CB00043FAB0EE409AF0EE609A51EC190BFFF750
:100CC0004EFB00EE100ABDEC068B10BD2DE9F04185
:100CD0002DED028B9AB00546B0EE408A0E461746BF
:100CE000984600201790189019901490159016901F
:100CF0004DB146B13FB1B8F1000F04D0B5EEC08A96
:100D0000F1EE10FA05D100201AB0BDEC028BBDE85F
:100D1000F08196ED000A8DED170A96ED010A8DED32
:100D2000180A96ED020A8DED190A97ED000A8DED6D
:100D3000140A97ED010A8DED150A97ED020A8DED63
:100D4000160A17AA14A9284608F0BAFE402104A8DA
:100D5000FFF7E0FA00200090019002900390002439
:100D600017A904A80BF0E4F900BF30E004A800EBD9
:100D7000041090ED000AD5ED000A20EE200A04A828
:100D800000EB0410D0ED010A95ED011A00EE810A86
:100D900004A800EB0410D0ED020A95ED021A00EE53
:100DA000810A04A800EB0410D0ED030A95ED031AA4
:100DB00000EE810A20EE080AF0EE000A80EE201A0A
:100DC000684600EB840080ED001A601CC4B2042C5D
:100DD000CCDB002410E005EB840090ED000A6846AF
:100DE00000EB8400D0ED000A30EE200A05EB840011
:100DF00080ED000A601CC4B2042CECDB28460BF02A
:100E000085F8012080E7000010B50122102102487A
:100E100001F0F8FD10BD00000000024010B50022F6
:100E20001021024801F0EEFD10BD0000000002405C
:100E30007047000010B501221146024801F0E2FDA2
:100E400010BD00000004024010B50022012102483C
:100E500001F0D8FD10BD00000004024010B5437839
:100E60001B021BB20478234300EE103AB8EEC01AFE
:100E70001C4BD3ED001A21EE211A81ED001AC37824
:100E80001B021BB28478234300EE103AB8EEC01A5E
:100E9000144BD3ED001A21EE211A81ED011A43798A
:100EA0001B021BB20479234300EE103AB8EEC01ABD
:100EB0000C4BD3ED001A21EE211A81ED021A037AB0
:100EC0001B04C47943EA04238479234300EE903A57
:100ED000B8EE601ADFED041A21EE211A82ED001A35
:100EE00010BD00003C01002000401C42704710B5BE
:100EF000044620460AF04BFC10BD10B504462046BF
:100F00000AF0AAF810BD00004278120212B203786B
:100F10001A4300EE102AF8EEC00A144A92ED001AA5
:100F200060EE810AC1ED000AC278120212B2837823
:100F30001A4300EE102AF8EEC00A0C4A92ED001A8D
:100F400060EE810AC1ED010A4279120212B2037900
:100F50001A4300EE102AF8EEC00A044A92ED001A75
:100F600060EE810AC1ED020A7047000040010020D6
:100F700010B50024FFF75CFFFFF7B8FF09F09EF8FB
:100F800010B144F0800402E008F0FEFF044309F0D1
:100F90008DFA10B144F0400402E009F00DFA044368
:100FA000204610BD2DE9FC4105460E46174600209F
:100FB00000900190FFF732FF922000F0D1F8062256
:100FC0006946122000F0ACF8FFF71EFF9DF8010003
:100FD000000200B29DF8001040EA010400EE104A41
:100FE000B8EEC00A4C48D0ED000A20EE200A86ED8B
:100FF000000A9DF80300000200B29DF8021040EACA
:10100000010400EE104AB8EEC00A4348D0ED000AD1
:1010100020EE200A86ED010A9DF80500000200B2CC
:101020009DF8041040EA010400EE104AB8EEC00A30
:101030003948D0ED000A20EE200A86ED020AFFF7BB
:1010400003FF08226946002000F06AF8FFF7F2FE6D
:101050009DF800000F2838D19DF80300000200B26F
:101060009DF8021040EA010400EE104AB8EEC00AF2
:101070002A48D0ED000A20EE200A85ED000A9DF8EE
:101080000500000200B29DF8041040EA010400EEE1
:10109000104AB8EEC00A2148D0ED000A20EE200A1E
:1010A00085ED010A9DF80700000200B29DF80610C8
:1010B00040EA010400EE104AB8EEC00A1748D0ED2D
:1010C000000A20EE200A85ED020AFFF7A7FEA22003
:1010D00000F046F802226946222000F021F8FFF7CE
:1010E00093FE9DF80000C0009DF8011040EA6114D5
:1010F000B4F5806F02DBA4F5006004B200EE104A84
:10110000F8EEC00AB4EE001AB3EE070A00EE810A48
:1011100087ED000ABDE8FC813C0100204001002071
:1011200070B506460C46154646F0800000F018F8EB
:1011300006E0552000F014F82070641C681EC5B24B
:10114000002DF6D170BD70B504460D4644F0800008
:1011500000F006F8552000F003F8287070BD00007C
:1011600001B582B04FF47A70012301AA02A9009060
:10117000024802F05DFD9DF804000EBD7C040020D5
:1011800010B502461378DB00547843EA6410B0F5DA
:10119000806F02DBA0F5006318B200EE100AF8EED3
:1011A000C00AB4EE001AB3EE070A00EE810A81ED20
:1011B000000A10BD70B505460C462846FFF7D0FF63
:1011C0002046FFF7CDFF70BD00BFFEE710B5024817
:1011D00000F00AFF10BD00008401002010B5024895
:1011E00000F002FF10BD0000AC010020F8B507467A
:1011F0000C4615461E464FF400700D49086000204D
:101200008860C86008200861380A0A4908704F7071
:10121000200A8870CC70280A08714D71300A8871D4
:10122000CE716B460A460249034800F0E1FCF8BD66
:1012300094070020280000208401002010B5FE48FB
:10124000C06C0068FD49884276D9FC485438006873
:10125000F949C96C0968FA4A914201D1202169E033
:10126000F549C96C0968F54A483A914201D12021F3
:1012700060E0F149C96C0968F14A6032914201D1DC
:10128000202157E0EC49C96C0968EC4A18329142B8
:1012900001D120214EE0E849C96C0968E84A1832BA
:1012A000914201D1C91445E0E349C96C0968E34A98
:1012B000303A914201D1C9143CE0DF49C96C096858
:1012C000DF4A7832914201D1C91433E0DA49C96C5E
:1012D0000968DA4A3032914201D1C9142AE0D6496C
:1012E000C96C0968D64A3032914202D14FF40011DC
:1012F00020E0D149C96C0968D04A183A914202D11C
:101300004FF4001116E0CC49C96C0968CC4A903200
:10131000914202D14FF400110CE0C749C96C096831
:10132000C64A4832914203D14FF4001102E003E073
:101330004FF00061084070E1BF48C06C0068C049D0
:10134000A831884276D9BD4858380068BA49C96C76
:101350000968BB4A914201D1202169E0B649C96CB4
:101360000968B64A483A914201D1202160E0B24969
:10137000C96C0968B24A6032914201D1202157E01C
:10138000AD49C96C0968AD4A1832914201D120219A
:101390004EE0A949C96C0968A94A1832914201D1A5
:1013A000C91445E0A449C96C0968A44A303A91427D
:1013B00001D1C9143CE0A049C96C0968A04A78323F
:1013C000914201D1C91433E09B49C96C09689B4A19
:1013D0003032914201D1C9142AE09749C96C096899
:1013E000974A3032914202D14FF4001120E09249E5
:1013F000C96C0968914A183A914202D14FF4001120
:1014000016E08D49C96C09688D4A9032914202D12B
:101410004FF400110CE08849C96C0968874A4832CA
:10142000914203D14FF4001102E003E04FF000615C
:101430000840F2E08048C06C006881494831884229
:1014400076D97F48103840687B49C96C09687C4A66
:10145000914201D1202169E07749C96C0968774A36
:10146000483A914201D1202160E07349C96C096872
:10147000734A6032914201D1202157E06E49C96C14
:1014800009686E4A1832914201D120214EE06A4922
:10149000C96C09686A4A1832914201D1C91445E001
:1014A0006549C96C0968654A303A914201D1C9144D
:1014B0003CE06149C96C0968614A7832914201D1C6
:1014C000C91433E05C49C96C09685C4A3032914206
:1014D00001D1C9142AE05849C96C0968584A303208
:1014E000914202D14FF4001120E05349C96C0968C0
:1014F000524A183A914202D14FF4001116E04E4977
:10150000C96C09684E4A9032914202D14FF40011E1
:101510000CE04949C96C0968484A4832914203D1F4
:101520004FF4001102E003E04FF00061084074E066
:101530004348103800684049C96C0968404A9142E4
:1015400001D1202168E03C49C96C09683B4A483A0E
:10155000914201D120215FE03749C96C0968384ABE
:101560006032914201D1202156E03349C96C0968AB
:10157000324A1832914201D120214DE02E49C96CE6
:1015800009682F4A1832914201D1C91444E02A490E
:10159000C96C0968294A303A914201D1C9143BE02B
:1015A0002549C96C0968264A7832914201D1C9148B
:1015B00032E02149C96C0968204A3032914201D198
:1015C000C91429E01C49C96C09681D4A303291428E
:1015D00002D14FF400111FE01749C96C0968174A7E
:1015E000183A914202D14FF4001115E01249C96C2A
:1015F0000968134A9032914202D14FF400110BE076
:101600000D49C96C09680D4A4832914202D14FF424
:10161000001101E04FF00061084000286FD006483B
:10162000C06C0068054988427BD90348C06C0068DB
:101630000349884208D105E07C0400205864024038
:1016400010600240202068E0FE48C06C0068FE493F
:10165000884201D1202060E0FA48C06C0068FB4954
:10166000884201D1202058E0F648C06C0068F64955
:101670006031884201D120204FE0F248C06C006800
:10168000F2494839884201D1C01446E0ED48C06CA7
:101690000068ED491831884201D1C0143DE0E948A5
:1016A000C06C0068E9491831884201D1C01434E0A7
:1016B000E448C06C0068E4497831884201D1C01424
:1016C0002BE0E048C06C0068E0493039884202D124
:1016D0004FF4001021E0DB48C06C0068DA4930317B
:1016E000884202D14FF4001017E0D648C06C006861
:1016F000D6493031884204D14FF400100DE0D4E1D6
:101700000FE0D048C06C0068CF499031884202D1C8
:101710004FF4001001E04FF00060CB49091F086052
:101720006AE1C848C06C0068C8494831884274D929
:10173000C448C06C0068C5496039884201D1202086
:1017400066E0C048C06C0068BF49884201D12020D3
:101750005EE0BC48C06C0068BC49884201D12020D2
:1017600056E0B848C06C0068B7496031884201D182
:1017700020204DE0B348C06C0068B4494839884225
:1017800001D1C01444E0AF48C06C0068AE491831C4
:10179000884201D1C0143BE0AA48C06C0068AB4944
:1017A0001831884201D1C01432E0A648C06C0068EC
:1017B000A5497831884201D1C01429E0A148C06C04
:1017C0000068A2493039884202D14FF400101FE06E
:1017D0009C48C06C00689C493031884202D14FF46B
:1017E000001015E09748C06C006898493031884275
:1017F00002D14FF400100BE09248C06C006892498F
:101800009031884202D14FF4001001E04FF00060A7
:101810008D4908390860EFE0FFE78A48C06C00682E
:101820008A491839884274D98648C06C006887494B
:101830006039884201D1202066E08248C06C00688F
:101840008149884201D120205EE07E48C06C00685A
:101850007E49884201D1202056E07A48C06C006859
:1018600079496031884201D120204DE07548C06C33
:10187000006876494839884201D1C01444E0714873
:10188000C06C006870491831884201D1C0143BE037
:101890006C48C06C00686D491831884201D1C01491
:1018A00032E06848C06C006867497831884201D1ED
:1018B000C01429E06348C06C00686449303988422C
:1018C00002D14FF400101FE05E48C06C00685E4912
:1018D0003031884202D14FF4001015E05948C06CF5
:1018E00000685A493031884202D14FF400100BE0B1
:1018F0005448C06C006854499031884202D14FF47A
:10190000001001E04FF0006050497039C86073E08A
:10191000FFE74C48C06C00684C496039884201D1EF
:10192000202066E04748C06C00684749884201D1E2
:1019300020205EE04348C06C00684449884201D1E1
:10194000202056E03F48C06C00683F496031884223
:1019500001D120204DE03B48C06C00683B4948392C
:10196000884201D1C01444E03648C06C0068364952
:101970001831884201D1C0143BE03248C06C006885
:1019800032491831884201D1C01432E02D48C06C70
:1019900000682D497831884201D1C01429E02948D6
:1019A000C06C006829493039884202D14FF40010D8
:1019B0001FE02448C06C006823493031884202D1BE
:1019C0004FF4001015E01F48C06C00681F4930310B
:1019D000884202D14FF400100BE01A48C06C006836
:1019E00019499031884202D14FF4001001E04FF0C4
:1019F00000601649703988601548007800F00200D0
:101A000078B11348007820F00200114908700846A8
:101A1000007840F004000870012211460D4800F0E3
:101A2000F1FF0D48007800F00200E0B10A480078AC
:101A300020F00200084908700846007840F00400D1
:101A400008700BE07C0400201064024070600240CB
:101A500061000020000402406200002001221021E9
:101A6000124800F0CFFF1248007800F0020078B171
:101A70000F48007820F002000D49087008460078F1
:101A800040F00400087001221021084800F0BAFF5D
:101A900009F086FC0748007800F0040028B10648E9
:101AA000006840F001000449086010BD00000240D9
:101AB0006300002061000020103C014001460878CE
:101AC00010381823B0FBF3F20848805CC865032A7D
:101AD00005D908686FF30900001D886503E00868F0
:101AE0006FF309008865886D70470000C8CC000856
:101AF000014600208A6A8B69CBB932B1012A0DD028
:101B0000022A03D0032A10D10EE000BFCB6A03F0F3
:101B10008073B3F1807F00D1012007E0CB6AB3F17D
:101B2000C07F00D1012001E000E000BF34E08B69FC
:101B3000B3F5005F1AD132B1012A07D0022A03D0CF
:101B4000032A11D10AE000BF01200EE0CB6A03F0A6
:101B50008073B3F1807F00D1012006E0CB6AB3F13E
:101B6000C07F00D1012000E000BF15E032B1012AA2
:101B700005D0022A04D0032A0CD103E000BF00BF25
:101B8000012008E0CB6A03F08073B3F1807F00D1BD
:101B9000012000E000BF00BF7047704710B5012072
:101BA00000F022FE10BD10B5082000F01DFE10BD93
:101BB00010B5102000F018FE10BD10B5202000F068
:101BC00013FE10BD704710B5024692F82030012B6D
:101BD00001D0022B06D11068406908431468606187
:101BE000002010BD506A40F4802050620120F8E7C8
:101BF000F0B504460D461E4694F8207020688368B0
:101C0000A86800B900E000BF012F01D0022F7CD1ED
:101C100003F0806030B903F0006018B903F0805021
:101C2000002873D0C3F30161022905D9606A40F42A
:101C3000000060620120F0BD012088403060A8688B
:101C400060B9B5F800C0E86840EA4C5C206800F56F
:101C5000C07000EB0110C0F800C00FE0D5E901C072
:101C600040EACC00D5F80CC040EA0C00D4F800C023
:101C70000CF5C07C0CEB011CCCF80000D5F810C0B2
:101C8000206800F5C07000EB0110C0F804C0287D8A
:101C900001280ED1206800F5C07000EB01104068EB
:101CA00040F4807C206800F5C07000EB0110C0F8A3
:101CB00004C0D079000692F806C040EA0C4092F8C1
:101CC00005C040EA0C2C10794CEA000C206800F5A5
:101CD000C07000EB0110C0F80CC0D078000692F87C
:101CE00002C040EA0C4092F801C040EA0C2092F891
:101CF00000C040EA0C00D4F800C00CF5C07C0CEB2E
:101D0000011CCCF80800206801E016E00FE000F5A7
:101D1000C07000EB0110006840F0010C206800F575
:101D2000C07000EB0110C0F800C0002083E7606ABB
:101D300040F40010606201207DE7606A40F480207A
:101D40006062012077E70000F0B504460A4621688A
:101D500094F82050012D01D0022D7ED1424901F589
:101D60000071086840F001000860086820F47C50A9
:101D700008600868566A40EA06200860107D00F096
:101D80001F06012000FA06F3C8699843C861A1F54F
:101D90000071D069C8B9D1F80C029843C1F80C029F
:101DA000908880B2968940EA064601F5107057691E
:101DB00040F83760108880B2168940EA064601F57F
:101DC0001070576900EBC7004660D069012819D12F
:101DD000D1F80C021843C1F80C02908880B2168822
:101DE00040EA064601F51070576940F8376090895F
:101DF00080B2168940EA064601F51070576900EB7B
:101E0000C7004660906928B9D1F804029843C1F828
:101E1000040204E0D1F804021843C1F80402106976
:101E200028B9D1F814029843C1F8140204E0D1F89B
:101E300014021843C1F81402106A012804D1D1F821
:101E40001C021843C1F81C02D1F8000220F0010066
:101E5000C1F800020020F0BDFFE7606A40F4802076
:101E600060620120F7E7000000640040704770B531
:101E7000044694F82050012D01D0022D7DD151B996
:101E80002068C06800F0030080B9606A40F4001068
:101E90006062012070BD2068006900F0030028B96D
:101EA000606A40F4001060620120F3E7206800F5EA
:101EB000D87000EB0110006800F00400906090689A
:101EC00040B9206800F5D87000EB01100068400DA3
:101ED000106007E0206800F5D87000EB0110006882
:101EE000C0085060206800F5D87000EB0110006851
:101EF00000F00200D060206800F5D87000EB0110FF
:101F0000406800F00F001061206800F5D87000EB09
:101F10000110406800F47F40000A9061206800F5DD
:101F2000D87000EB01104068000C5061206800F58B
:101F3000D87000EB011080681870206800F5D87028
:101F400000EB0110806800F47F40000A58702068A0
:101F500000F5D87000EB0110806800F47F00000CE1
:101F60009870206800F5D87000EB01108068000EB2
:101F7000D870206800F5D87000E02FE000EB011069
:101F8000C0681871206800F5D87000EB0110C068B7
:101F900000F47F40000A5871206800F5D87000EB0B
:101FA0000110C06800F47F00000C9871206800F5F3
:101FB000D87000EB0110C068000ED87131B92068EC
:101FC000C06840F020002668F06005E020680069E5
:101FD00040F020002668306100205BE7606A40F432
:101FE00080206062012055E72DE9F05F044600255E
:101FF000206846692068D0F80490206887682068C7
:10200000D0F80CA02068D0F810B02068D0F8188064
:1020100006F00100002855D007F00100C0B10120F2
:102020002168886007F0020018B1204600F00BFB21
:102030000EE007F0040010B145F4006508E007F079
:10204000080010B145F4805502E0204600F0FAFA8D
:1020500007F48070C8B14FF480702168886007F47D
:10206000007018B1204600F0F0FA0EE007F480602E
:1020700010B145F4005508E007F4006010B145F4D4
:10208000804502E0204600F0DFFA07F48030C8B156
:102090004FF480302168886007F4003018B1204682
:1020A00000F0D5FA0EE007F4802010B145F40045A9
:1020B00008E007F4002010B145F4803502E0204626
:1020C00000F0C4FA06F0080038B10AF0100020B1A0
:1020D00045F4007510202168C86006F0040040B186
:1020E0000AF0080028B108202168C860204600F0E6
:1020F0000DFA06F0020038B12068C06800F0030055
:1021000010B1204600F004FA06F0400038B10BF0A0
:10211000100020B145F4806510202168086106F0A8
:10212000200040B10BF0080028B1082021680861A8
:10213000204600F055FA06F0100038B1206800691A
:1021400000F0030010B1204600F04BFA06F4003016
:1021500040B109F0100028B11020216848602046E5
:1021600000F040FA06F4803040B109F0080028B1D0
:10217000082021684860204600F06AFA06F4004012
:1021800088B309F0040078B306F4807020B108F039
:10219000010008B145F0010506F4007020B108F017
:1021A000020008B145F0020506F4806020B108F095
:1021B000040008B145F0040506F40060A0B108F081
:1021C000700088B108F07000402817D006DC102895
:1021D0000BD020280CD0302819D10CE0502810D07A
:1021E000602814D110E01DE019E045F008050FE06B
:1021F00045F010050CE045F0200509E045F04005EC
:1022000006E045F0800503E045F4807500E000BF7E
:1022100000BF2068806920F0700021688861042078
:10222000216848602DB1606A284360622046FFF74C
:102230001DFEBDE8F09F70B504460CB9012070BDCD
:1022400094F8200010B9204600F0B0F8206800682B
:1022500020F002002168086000F0DAFB05460DE07E
:1022600000F0D6FB401B0A2808D9606A40F4003011
:102270006062052084F820000120E0E720684068C3
:1022800000F002000028EBD12068006840F0010057
:102290002168086000F0BCFB05460DE000F0B8FBCB
:1022A000401B0A2808D9606A40F4003060620520AB
:1022B00084F820000120C2E72068406800F0010097
:1022C0000028EBD0207E012806D12068006840F06D
:1022D00080002168086005E02068006820F0800028
:1022E00021680860607E012806D12068006840F0FF
:1022F00040002168086005E02068006820F0400088
:1023000021680860A07E012806D12068006840F09E
:1023100020002168086005E02068006820F02000A7
:1023200021680860E07E012806D12068006820F05E
:1023300010002168086005E02068006840F0100087
:1023400021680860207F012806D12068006840F0DD
:1023500008002168086005E02068006820F0080097
:1023600021680860607F012806D12068006840F07D
:1023700004002168086005E02068006820F004007F
:1023800021680860D4E902010843216908436169B2
:1023900008436168491E08432168C86100206062E3
:1023A000012084F82000002049E7000010B586B025
:1023B0000446142101A8FDF7ADFF4E49206888426C
:1023C00041D14D480068401C4B49086008460068F0
:1023D00001280FD100BF002000904848006840F05D
:1023E0000070464908600846006800F000700090E0
:1023F00000BF00BF00BF00200090404810380068B8
:1024000040F008003D49103908600846006800F0B7
:102410000800009000BF00BF03200190022002903E
:1024200000200390032004900920059001A934485E
:1024300000F0E8F900220521142000F00FFF14201D
:1024400000F0FCFE54E02F492068884250D100BFC4
:10245000002000902948006840F08060274908600B
:102460000846006800F08060009000BF00BF22486E
:102470000068401C204908600846006801280FD108
:1024800000BF002000901D48006840F000701B490C
:1024900008600846006800F00070009000BF00BFB0
:1024A00000BF0020009015481038006840F002007E
:1024B0001249103908600846006800F002000090D8
:1024C00000BF00BF60200190022002900020039016
:1024D000032004900920059001A90B4800F092F90F
:1024E00000220521402000F0B9FE402000F0A6FEA9
:1024F00006B010BD006400400000002040380240DB
:10250000000C0240006800400004024070470000D8
:1025100010B58AB0044601AB03AA00212046FFF79C
:10252000A6FC0398A0F20120072851D2DFE800F0B2
:102530000405060708090A0000BF00BF00BF00BF6E
:1025400000BF00BF0398401E23490870084600786A
:1025500000EB8000214931F8100000B21E490978D3
:1025600001EB81011D4A02EB410108819DF8050044
:102570009DF8041040EA01201749097801EB810118
:1025800022F811009DF807009DF8061040EA01208E
:1025900000B21149097801EB810102EB4101488049
:1025A0009DF809009DF8081040EA012000B20A4990
:1025B000097801EB810102EB410188809DF80A0056
:1025C0000549097801EB810102EB4101887100E0C6
:1025D00000BF00BF0AB010BD30000020340700204B
:1025E00070477047704770B5044694F82000012882
:1025F00022D1022084F820002068006820F0010029
:102600002168086000F004FA05460DE000F000FAC9
:10261000401B0A2808D9606A40F400306062052037
:1026200084F82000012070BD2068406800F001009F
:102630000028EBD16062F6E7606A40F40020606237
:102640000120F0E770477047704770477047704748
:10265000704700002DE9F0410446002500F0D8F94C
:10266000074614B90120BDE8F081606A00B100BFDF
:1026700000BF002084F8340000BF022084F8350039
:102680002068006820F00100216808600AE000F07E
:10269000BFF9C01B052805D920206065032084F8F8
:1026A0003500E0E72068006800F001000028EED166
:1026B0002068056821480540D4E901010843E16824
:1026C00008432169084361690843A1690843E16936
:1026D0000843216A08430543606A042803D1D4E90A
:1026E0000B0108430543206805602068456925F013
:1026F0000705606A0543606A04280DD1A06A054396
:10270000E06A48B12046FFF7F3F928B14020606540
:10271000012084F83500A6E7206845612046FFF7D0
:10272000CDF9064694F85C103F208840B060002048
:102730006065012084F83500002094E73F8010F0A8
:1027400010B50446102C11D11F48007840F001004C
:102750001D4908701D48007840F001001B490870B1
:102760001B48007870B308F01BFE2BE0202C0BD127
:102770001848007840F001001649087014480078A5
:1027800000B308F00DFE1DE0082C06D112480078B9
:1027900040F001001049087014E0012C12D10AF039
:1027A00033F901280ED00D490D48006809F078FE74
:1027B0000A48006830B120070A490860BFF34F8F0C
:1027C000BFF36F8F10BD0000620000206300002087
:1027D000650000206100002064000020D800002077
:1027E0003C00002004ED00E010B5044604480068F9
:1027F000204020B1024804602046FFF7A1FF10BD31
:10280000143C0140F8B502460B4600250024002088
:102810000021DCE0012606FA01F51E6806EA05043F
:10282000AC4273D15E68012E08D05E68022E05D0DE
:102830005E68112E02D05E68122E13D190684F0090
:102840000326BE40B0434F00DE68BE403043906078
:10285000506801268E40B0431E79C6F300168E40A4
:1028600030435060D0684F000326BE40B0434F0055
:102870009E68BE403043D0605E68022E02D05E6823
:10288000122E13D1CF0802F1200656F827004E076A
:10289000F70E0F26BE40B0434F07FF0E1E69BE4025
:1028A0003043CF0802F1200646F8270010684F0099
:1028B0000326BE40B0431E7906F003064F00BE401B
:1028C000304310605E6806F08056B6F1805F7DD1BF
:1028D00000BF00260096404E366846F480463E4FC4
:1028E0003E603E46366806F48046009600BF00BF54
:1028F0003A4E8F0856F827008E07370F0F26BE4036
:10290000B043374EB24202D1002624E05EE0354E9D
:10291000B24201D101261EE0334EB24201D102265D
:1029200019E0324EB24201D1032614E0304EB242D9
:1029300001D104260FE02F4EB24201D105260AE054
:102940002D4EB24201D1062605E02C4EB24201D1F5
:10295000072600E008268F073F0FBE4030431F4E7A
:102960008F0846F82700264E3068A0435E6806F4BC
:102970008036B6F5803F00D12043214E3060361DB1
:102980003068A0435E6806F40036B6F5003F00D11B
:1029900020431B4E361D3060361D3068A0435E68F4
:1029A00006F48016B6F5801F00D12043144E083679
:1029B0003060361D3068A0435E6806F40016B6F538
:1029C000001F00D120430E4E0C363060491C1029E8
:1029D000FFF420AFF8BD0000443802400838014041
:1029E000000002400004024000080240000C0240C7
:1029F000001002400014024000180240001C024077
:102A0000003C01400AB1816101E00B048361704721
:102A100001480068704700001000002070B50446AF
:102A20000CB9012070BD94F83D0028B9002084F84D
:102A30003C00204600F006FB242084F83D0020687E
:102A4000006820F00100216808602068006840F4F8
:102A50000040216808602068006820F40040216878
:102A6000086000F037FD05465C496068884206D87A
:102A70005B48854201D2012007E0002005E059486B
:102A8000854201D2012000E00020012800D1C9E7E1
:102A90005548B5FBF0F62068406820F03F00304311
:102AA000216848604D496068884201D8701C07E081
:102AB0004FF4967070434FF47A71B0FBF1F0401C04
:102AC0002168096A21F03F010843216808624349EF
:102AD0006068884214D8681E61684900B0FBF1F054
:102AE000401CC0F30B00042801D204203DE0681E06
:102AF00061684900B0FBF1F0401CC0F30B0034E00A
:102B0000A06838B9681E616801EB4101B0FBF1F0C3
:102B1000401C0AE0681E616801EBC10202EB011172
:102B2000B0FBF1F0401C40F48040C0F30B0008B94A
:102B300001201AE0A06848B9681E616801EB4101F4
:102B4000B0FBF1F0401CC0F30B000CE0681E6168A4
:102B500001EBC10202EB0111B0FBF1F0401CC0F32C
:102B60000B0040F4804040F400402168C9694CF6F5
:102B7000FF72914308432168C861D4E90701084303
:102B80002168096821F0C001084321680860D4E980
:102B9000031008432168896848F2FF3291430843D3
:102BA00021688860D4E9050108432168C96821F0DB
:102BB000FF0108432168C8602068006840F00100F8
:102BC0002168086000202064202084F83D00002057
:102BD000206384F83E0000BF24E70000A0860100C7
:102BE00080841E0000093D0040420F002DE9FC5F7B
:102BF00004460F4690469946DDE90CAB0E9EFFF762
:102C000007FF054694F83D00202870D119230122C2
:102C1000B0492046009501F027FF10B10220BDE821
:102C2000FC9F00BF94F83C00012801D10220F6E788
:102C3000012084F83C0000BF2068006800F001001B
:102C400028B92068006840F0010021680860206809
:102C5000006820F4006021680860222084F83D00AC
:102C6000402084F83E0000202064C4F824A0A4F88A
:102C70002AB0608D20859848E0624B46424639462E
:102C80002046CDE9006501F0A7FD08B10120C6E7A7
:102C9000208D88B900BF0020019020684069019014
:102CA00020688069019000BF00BF2068006840F480
:102CB00000702168086040E0208D012818D120684C
:102CC000006820F480602168086000BF0020019047
:102CD00020684069019020688069019000BF00BFB2
:102CE0002068006840F400702168086025E0EFE08B
:102CF000208D022816D12068006820F480602168A9
:102D000008602068006840F400602168086000BF27
:102D1000002001902068406901902068806901903E
:102D200000BF0AE000BF00200190206840690190C8
:102D300020688069019000BF00BFBAE0208D0328A1
:102D40007ED8208D012815D12A463146204601F033
:102D500030FF08B1012062E720680069616A0870ED
:102D6000606A401C6062208D401E2085608D401E80
:102D700060859EE0208D02282AD1334600225749E3
:102D80002046009501F070FE08B1012047E7206859
:102D9000006840F400702168086020680069616A7A
:102DA0000870606A401C6062208D401E2085608D26
:102DB000401E608520680069616A0870606A401C76
:102DC0006062208D401E2085608D401E608570E011
:102DD0003346002241492046009501F045FE08B1E6
:102DE00001201CE72068006820F4806021680860EA
:102DF00020680069616A0870606A401C6062208D0A
:102E0000401E2085608D401E608533460022334978
:102E10002046009501F028FE08B10120FFE6206859
:102E2000006840F400702168086020680069616AE9
:102E30000870606A401C6062208D401E208500E0A2
:102E400010E0608D401E608520680069616A08702E
:102E5000606A401C6062208D401E2085608D401E8F
:102E6000608526E02A463146204601F0A2FE08B1E0
:102E70000120D4E620680069616A0870606A401C1D
:102E80006062208D401E2085608D401E6085206818
:102E90004069C0F3800060B120680069616A087011
:102EA000606A401C6062208D401E2085608D401E3F
:102EB0006085208D00287FF441AF202084F83D00FC
:102EC000002084F83E0000BF84F83C0000BFA6E666
:102ED0000220A4E6020010000000FFFF0400010031
:102EE0002DE9FC5F04460F4690469946DDE90CABA0
:102EF0000E9EFFF78DFD054694F83D0020287DD1FC
:102F0000192301224D492046009501F0ADFD10B175
:102F10000220BDE8FC9F00BF94F83C00012801D1CD
:102F20000220F6E7012084F83C0000BF206800681A
:102F300000F0010028B92068006840F00100216815
:102F400008602068006820F4006021680860212083
:102F500084F83D00402084F83E0000202064C4F83E
:102F600024A0A4F82AB0608D20853548E0624B4645
:102F7000424639462046CDE9006501F0D9FC08B14A
:102F80000120C6E731E02A463146204601F051FED5
:102F900050B1206C042805D12068006840F400700E
:102FA000216808600120B4E7606A00782168086140
:102FB000606A401C6062208D401E2085608D401E2E
:102FC000608520684069C0F3800070B1208D60B1D9
:102FD000606A007821680861606A401C6062208D28
:102FE000401E2085608D401E6085208D0028CAD13E
:102FF0002A463146204601F009FD00E01CE050B1B0
:10300000206C042805D12068006840F40070216815
:10301000086001207DE72068006840F400702168A6
:103020000860202084F83D00002084F83E0000BFA6
:1030300084F83C0000BF6CE702206AE70200100041
:103040000000FFFF10B586B00446142101A8FDF76B
:1030500061F92A49206888424DD100BF00200090C4
:103060002748006840F004002549086008460068C9
:1030700000F00400009000BF00BF00BF00200090DF
:103080000846006840F0010008600846006800F04B
:103090000100009000BF00BF48150190122002906F
:1030A00001200390032004900420059001A91548F5
:1030B000FFF7A8FB4FF480700190122002900120CE
:1030C0000390032004900420059001A90E48FFF707
:1030D00099FB00BF0020009009481030006840F4C0
:1030E00000000749103108600846006800F400003D
:1030F000009000BF00BF06B010BD0000005C0040A3
:1031000030380240000802400000024003480068D6
:1031100003490978084401490860704710000020FD
:103120001800002010B50D48006840F400700B49ED
:1031300008600846006840F480600860084600683F
:1031400040F480700860032000F0C6F8002000F012
:1031500007F800F049F8002010BD0000003C0240D4
:1031600070B588B0044600250026002221461C20A8
:1031700000F074F81C2000F061F800BF00200190FE
:103180001648006840F001001449086008460068CD
:1031900000F00100019000BF00BF02A903A800F0E9
:1031A00071F900F097F945000D48B5FBF0F0461EA7
:1031B0004FF080400B49086040F2E7310948C16098
:1031C000466000210161816000F0DEFE20B9054803
:1031D00000F04FFF08B070BD0120FBE7403802400F
:1031E00040420F00F406002008B500BF0020009008
:1031F0001148006840F480400F49086008460068A4
:1032000000F48040009000BF00BF00BF002000908D
:10321000081F006840F08050091F086008460068D9
:1032200000F08050009000BF00BF00220F21901ED0
:1032300000F014F808BD000044380240014608467A
:10324000002809DB00F01F0301229A4043099B007C
:1032500003F1E023C3F8002100BF70472DE9F05FC0
:1032600080460D461646002705F01AFD07463946EA
:103270002A46334601F00700C0F1070ABAF1040FED
:1032800002D94FF0040A01E0C0F1070AD14600F16B
:10329000040ABAF1070F02D24FF0000A01E0A0F1D0
:1032A000030AD4464FF0010A0AFA09FAAAF1010A00
:1032B0000AEA020A0AFA0CFA4FF0010B0BFA0CFBAD
:1032C000ABF1010B0BEA030B4AEA0B042146404623
:1032D00005F0EEFCBDE8F09F00BF00F00702064BD2
:1032E00019684FF6FF031940044B0B4343EA0221D0
:1032F000014B196000BF70470CED00E00000FA05BB
:1033000070B504460D460CB9012070BD58480068E0
:1033100000F00F00A84209D255490D700846006818
:1033200000F00F00A84201D00120EEE7207800F065
:10333000020002281DD1207800F00400042805D1E5
:103340004C48006840F4E0504A490860207800F09A
:103350000800082805D14748006840F46040454906
:1033600008604448006820F0F000A1680843414923
:103370000860207800F00100A8B36068012807D138
:103380003C4808380068C0F34040B8B90120BCE7A9
:103390006068022802D06068032807D135480838E1
:1033A0000068C0F3406048B90120AEE731480838F2
:1033B0000068C0F3400008B90120A6E72D48006866
:1033C00020F00300616808432A490860FFF720FBEA
:1033D000064609E0FFF71CFB801B41F2883188425A
:1033E00002D9032091E707E02248006800F00C00B2
:1033F0006168B0EB810FEDD11D48006800F00F004F
:10340000A84209D91A490D700846006800F00F005B
:10341000A84201D0012078E7207800F004000428B9
:1034200007D11448006820F4E050E16808431149CE
:103430000860207800F00800082808D10D480068CE
:1034400020F46040216940EAC1000A49086000F0A8
:1034500061F808490968C1F30311074A515CC84083
:103460000649086006480068FFF77AFE00204CE72E
:10347000003C024008380240D0CC00081C0000206C
:10348000140000200F2202600D4A126802F00302AD
:1034900042600B4A126802F0F0028260084A126829
:1034A00002F4E052C260064A126802F46042D20896
:1034B0000261044A126802F00F020A6070470000BD
:1034C00008380240003C0240014800687047000094
:1034D0001C00002000B5FFF7F7FF04490968C1F39D
:1034E0008221034A515CC84000BD000008380240F8
:1034F000E0CC000800B5FFF7E7FF04490968C1F315
:103500004231034A515CC84000BD00000838024007
:10351000E0CC00082DE9F047002400250026A14654
:103520002548006800F00C0020B1042805D00828C8
:103530003AD105E0DFF8849039E0DFF8849036E096
:103540001D48001F006800F03F041B48001F006872
:1035500000F4800078B11A481749091F0968C1F3BF
:103560008811A0FB01700146224600233846FCF773
:1035700087FE05460EE011480F49091F0968C1F38F
:103580008811A0FB01700146224600233846FCF753
:1035900077FE05460848001F0068C0F30140401C44
:1035A0004600B5FBF6F902E0DFF8109000BF00BF5F
:1035B0004846BDE8F0870000083802400024F400C7
:1035C000001BB700F8B504460CB90120F8BD2078FF
:1035D00000F00100002874D0F948006800F00C00E9
:1035E00004280DD0F648006800F00C00082813D11C
:1035F000F348001F006800F48000B0F5800F0BD185
:10360000EF4808380068C0F34040002859D060688F
:10361000002856D10120D9E700BF6068B0F5803F8F
:1036200008D1E7480838006840F48030E449083998
:1036300008601EE06068B0F5A02F0DD1E0480838A2
:10364000006840F48020DE490839086008460068B8
:1036500040F4803008600CE0D9480838006820F455
:103660008030D749083908600846006820F4802077
:10367000086000BF606890B1FFF7CAF9054606E030
:10368000FFF7C6F9401B642801D903209EE7CC4808
:1036900008380068C0F340400028F1D011E0FFF77F
:1036A000B7F9054606E0FFF7B3F9401B642801D9D6
:1036B00003208BE7C24808380068C0F34040002868
:1036C000F1D1207800F0020002285FD1BC480068E8
:1036D00000F00C0058B1BA48006800F00C0008284F
:1036E0001CD1B748001F006800F48000B0B9B4488E
:1036F00008380068C0F3400020B1E068012801D01C
:10370000012063E7AE480838006820F0F80021691E
:1037100040EAC100AA490839086037E0E06800B310
:103720000120A8490860FFF773F9054606E0FFF796
:103730006FF9401B022801D9032047E7A048083849
:103740000068C0F340000028F1D09D4808380068A8
:1037500020F0F800216940EAC10099490839086061
:1037600014E0002097490860FFF752F9054606E08B
:10377000FFF74EF9401B022801D9032026E79048A5
:1037800008380068C0F340000028F1D1207800F02C
:10379000080008282CD16069A8B101208A49086076
:1037A000FFF736F9054606E0FFF732F9401B02281D
:1037B00001D903200AE782486C300068C0F340005A
:1037C0000028F1D014E000207F490860FFF720F9BD
:1037D000054606E0FFF71CF9401B022801D903202B
:1037E000F4E677486C300068C0F340000028F1D15F
:1037F000207800F00400042870D100277048383089
:10380000006800F0805090B900BF002000906C4824
:103810003830006840F08050694938310860084607
:10382000006800F08050009000BF00BF012767488B
:10383000006800F48070B0B96448006840F480709B
:1038400062490860FFF7E4F8054606E0FFF7E0F894
:10385000401B022801D90320B8E65C48006800F448
:1038600080700028F2D000BFA068012808D1544819
:103870006830006840F001005149683108601DE07F
:10388000A06805280DD14E486830006840F004005B
:103890004B49683108600846006840F00100086044
:1038A0000CE047486830006820F001004449683166
:1038B00008600846006820F00400086000BFA068A7
:1038C000A8B1FFF7A5F8054609E0FFF7A1F8401BEE
:1038D00041F28831884202D9032077E626E0384851
:1038E00068300068C0F340000028EED013E0FFF716
:1038F0008FF8054608E0FFF78BF8401B41F288314E
:10390000884201D9032061E62D4868300068C0F381
:1039100040000028EFD1012F07D129483830006836
:1039200020F0805026493831086000BFA069002887
:1039300045D02348006800F00C0008285DD0A0693D
:10394000022845D100201F490866FFF761F80546A7
:1039500006E0FFF75DF8401B022801D9032035E699
:10396000174808380068C0F340600028F1D1D4E956
:1039700007010843616A40EA81110122A06AC2EB93
:10398000500041EA00412C20005D41EA00600C49F2
:10399000091F086001200B490866FFF739F8054642
:1039A00006E0FFF735F8401B022801D903200DE699
:1039B000034808380068C0F340600028F1D03FE0B9
:1039C0000838024000004742800E47420070004025
:1039D00000201C490866FFF71BF8054606E0FFF7C4
:1039E00017F8401B022801D90320EFE516480068AC
:1039F000C0F340600028F2D122E0A069012800D184
:103A0000E4E51148001D066806F48001E069814282
:103A100014D106F03F01206A81420FD147F6C070F1
:103A20003040616A884209D106F44031A06A81427F
:103A300004D106F07061E06A814201D00120C5E541
:103A40000020C3E5000047420038024010B504469C
:103A50000CB9012010BD606A00B900BF0021A1624D
:103A600094F8510028B9002084F85000204600F056
:103A700033F8022084F851002068006820F04000EC
:103A800021680860D4E901010843E168084321691D
:103A9000084361690843218B01F400710843E1691F
:103AA0000843216A0843A16A084321680860042189
:103AB000A06901EA1040616A0843216848602068F3
:103AC000C06920F400602168C861002060650120A1
:103AD00084F851000020BDE710B586B004461421DB
:103AE00001A8FCF717FC4B49206888427ED100BF33
:103AF000002000904848006840F480504649086023
:103B00000846006800F48050009000BF00BF00BF6E
:103B10000020009040481438006840F002003E4900
:103B2000143908600846006800F00200009000BFE9
:103B300000BF00BF002000900846006840F0010070
:103B400008600846006800F00100009000BF00BF58
:103B5000182001900220029000200390032004907E
:103B60000520059001A92D48FEF74CFE802001900C
:103B7000022002900020039003200490052005906D
:103B800001A92748FEF73EFE2648274908604FF066
:103B9000C0604860002124488160C1604FF48061AA
:103BA0000161002141618161C1614FF440310162D5
:103BB00000214162FEF74EFD08B1FEF703F800BF99
:103BC0001948E064846300BF16481830174908603C
:103BD0004FF0C06048604021144881600021C160FE
:103BE0004FF4806101610021416100E010E08161DA
:103BF000C1614FF40031016200214162FEF72AFDEC
:103C000008B1FDF7DFFF00BF0848A064846300BF70
:103C100006B010BD003001404438024000040240AC
:103C20000000024040640240D4040020340500201B
:103C30002DE9FF5F0446884691461D460E9E0120F1
:103C400002900020019000BF94F85000012803D199
:103C5000022004B0BDE8F09F012084F8500000BFAE
:103C6000FEF7D6FE074694F851B060680390AA4666
:103C7000BBF1010F0BD00398B0F5827F04D1A0688F
:103C800010B9BBF1040F02D002200190DBE0B8F1C3
:103C9000000F03D0B9F1000F00D015B90120019039
:103CA000D1E094F85100042802D0052084F8510096
:103CB00000206065C4F83890E587A587C4F8308097
:103CC000E586A586206460642068006800F04000F6
:103CD000402805D02068006840F040002168086056
:103CE000E068B0F5006F4AD1606810B1BAF1010F19
:103CF00009D1206B00882168C860206B801C20637C
:103D0000E08E401EE08633E02068806800F002000C
:103D1000022810D1E08E70B1029801280BD1206BDF
:103D200000882168C860206B801C2063E08E401EE4
:103D3000E086002002902068806800F0010068B1F1
:103D4000E08F58B12068C068A16B0880A06B801C10
:103D5000A063E08F401EE08701200290FEF758FE2E
:103D6000C01BB04204D3701C10B1032001906AE064
:103D7000E08E0028C8D1E08F0028C5D14AE06068F5
:103D800010B1BAF1010F09D1206B007821680873D6
:103D9000206B401C2063E08E401EE08634E02068EB
:103DA000806800F00200022810D1E08E70B1029805
:103DB00001280BD1206B007821680873206B401C10
:103DC0002063E08E401EE08600200290206880681C
:103DD00000F0010068B1E08F58B12068C068A16BA5
:103DE0000870A06B401CA063E08F401EE08701209C
:103DF0000290FEF70DFEC01BB04201D3701C00B94B
:103E000016B9032001901EE0E08E0028C7D1E08F94
:103E10000028C4D13A463146204604F0DDF920B1ED
:103E200001200190202060650DE0A06850B900BF1E
:103E3000002000902068C068009020688068009092
:103E400000BF00BF00BF012084F8510000BF002068
:103E500084F8500000BF0198FBE67047704710B52A
:103E60000346002200BF93F83C00012801D1022044
:103E700010BD012083F83C0000BF22F0FF00CC6899
:103E800040EA040222F440708C6840EA040222F402
:103E900080604C6840EA040222F400600C6840EA4A
:103EA000040222F480500C6940EA040222F400501B
:103EB0004C6940EA040222F48040CC6940EA0402E2
:103EC0001868426400BF002083F83C0000BF00BFB8
:103ED000CEE7000030B502460B4600BF92F83C002A
:103EE000012801D1022030BD012082F83C0000BF32
:103EF000022082F83D00106844681068816824F050
:103F000070041868044310684460184D1068A84293
:103F10001BD01068B0F1804F17D0154D1068A84223
:103F200013D0144D1068A8420FD0134D1068A8424A
:103F30000BD0124D1068A84207D0114D1068A8424E
:103F400003D0104D1068A84205D121F080015868B7
:103F5000014310688160012082F83D0000BF00200D
:103F600082F83C0000BF00BFBDE700000000014038
:103F70000004004000080040000C00400004014024
:103F8000004001400018004010B504460CB9012063
:103F900010BD94F83D0028B9002084F83C0020466C
:103FA00000F00CF8022084F83D00211D206804F088
:103FB0002DFA012084F83D000020E9E708B51E4AEB
:103FC000016891420FD100BF002100911B4909688F
:103FD00041F00101194A11601146096801F001011F
:103FE000009100BF27E0164A016891420FD100BF3F
:103FF000002100911149096841F002010F4A116046
:104000001146096801F00201009100BF13E00D4A5A
:10401000016891420FD100BF002100910749096852
:1040200041F40031054A11601146096801F400317C
:10403000009100BF00BF08BD0000014044380240AD
:1040400000040140004401400146022081F83D0087
:104050000868806800F00702062A05D00868006832
:1040600040F001000B681860012081F83D0000203D
:10407000704701460868C06840F001000B68D860CE
:104080000868806800F00702062A05D00868006802
:1040900040F001000B681860002070472DE9F041E6
:1040A00004460D4600BF94F83C00012802D10220CE
:1040B000BDE8F081012084F83C0000BF022084F8B4
:1040C0003D002068866826F0770626F47F46206843
:1040D00086602868502833D00CDC202850D004DCBF
:1040E00000284BD0102851D149E0302849D0402831
:1040F0004CD139E060282DD0702807D0B0F5805F12
:1041000003D0B0F5005F41D10DE040E0D5E90213E6
:104110006A68206804F0F7F92068866846F0770638
:104120002068866033E0D5E902136A68206804F0ED
:10413000EAF92068806840F480402168886026E0C1
:10414000EA686968206804F0CFFA5021206804F01A
:10415000E5F91CE0EA686968206804F0D8FA602193
:10416000206804F0DBF912E0EA686968206804F06E
:10417000BBFA4021206804F0D1F908E000BF00BF7D
:1041800000BF2968206804F0C9F900E000BF00BF43
:10419000012084F83D0000BF002084F83C0000BFEF
:1041A00000BF85E7704710B5044620680069C0F37A
:1041B0004000D8B12068C068C0F34000B0B16FF0D3
:1041C000020021680861012020772068806900F0E2
:1041D000030018B12046FFF7E5FF05E0204600F098
:1041E00055F9204600F0F2F9002020772068006998
:1041F000C0F38000D8B12068C068C0F38000B0B1BF
:104200006FF004002168086102202077206880692F
:1042100000F4407018B12046FFF7C4FF05E02046C7
:1042200000F034F9204600F0D1F900202077206812
:104230000069C0F3C000D8B12068C068C0F3C000F6
:10424000B0B16FF008002168086104202077206871
:10425000C06900F0030018B12046FFF7A3FF05E096
:10426000204600F013F9204600F0B0F90020207736
:1042700020680069C0F30010D8B12068C068C0F39E
:104280000010B0B16FF0100021680861082020779D
:104290002068C06900F4407018B12046FFF782FF23
:1042A00005E0204600F0F2F8204600F08FF90020EB
:1042B00020772068006900F0010058B12068C068CC
:1042C00000F0010030B16FF0010021680861204664
:1042D00000F0AAF920680069C0F3C01058B1206846
:1042E000C068C0F3C01030B16FF080002168086171
:1042F0002046FFF7B2FD20680069C0F3801058B176
:104300002068C068C0F3801030B16FF040002168B1
:104310000861204600F091F920680069C0F3401060
:1043200058B12068C068C0F3401030B16FF0200071
:10433000216808612046FFF791FD10BD10B586B0D9
:104340000446142101A8FBF7E5FF4749206888428D
:104350001FD100BF002000904448006840F01000CA
:10436000424908600846006800F01000009000BF55
:1043700000BF4FF4D440019002200290012003902E
:10438000022004900120059001A93948FEF73AFA6D
:1043900067E03849206888423BD100BF0020009088
:1043A0003248006840F48070304908600846006870
:1043B00000F48070009000BF00BF00BF002000909C
:1043C0000846006840F0040008600846006800F0F5
:1043D0000400009000BF00BFC020019002200290A6
:1043E00001200390022004900320059001A9224897
:1043F000FEF708FA4020019002200290012003906D
:10440000022004900320059001A91C48FEF7FAF948
:1044100027E01B492068884223D100BF002000907C
:104420001248006840F02000104908600846006803
:1044300000F02000009000BF00BF4020019002204B
:1044400002900020039004900320059001A90D48DC
:10445000FEF7D8F90C48FFF7F7FD00210A4800F0F5
:10446000B7F806B010BD000000000140303802402F
:1044700000100240000401400020024000080240F9
:10448000004401400014024014060020704770B53B
:1044900004460D46164600BF94F83C00012801D1A1
:1044A000022070BD012084F83C0000BF022084F887
:1044B0003D0036B1042E1BD0082E31D00C2E5ED11B
:1044C00045E02946206804F033F82068806940F010
:1044D0000800216888612068806920F00400216854
:1044E000886120688069296908432168886147E0FC
:1044F0002946206804F054F82068806940F4006080
:10450000216888612068806920F480602168886162
:1045100020688069296940EA0120216888612FE0CC
:104520002946206804F07AF82068C06940F0080045
:104530002168C8612068C06920F004002168C86152
:104540002068C069296908432168C86118E02946C4
:10455000206804F09FF82068C06940F4006021687A
:10456000C8612068C06920F480602168C861206843
:10457000C069296940EA01202168C86100E000BFE4
:1045800000BF012084F83D0000BF002084F83C00FB
:1045900000BF00BF85E710B504460CB9012010BD6F
:1045A00094F83D0028B9002084F83C00204600F033
:1045B0000CF8022084F83D00211D206803F026FF3E
:1045C000012084F83D000020E9E7704770470000B3
:1045D00070B504460E4601223146206803F082FF82
:1045E0000F492068884203D00E492068884201D1D3
:1045F000012000E0002028B12068406C40F4004019
:10460000216848642068806800F00705062D05D001
:104610002068006840F0010021680860002070BD3B
:10462000000001400004014010B504462068B0F1CC
:10463000804F01D1FEF76AFD10BD704710B50446EA
:104640000CB9012010BDA06900B100E000BF94F8D2
:10465000390028B9002084F83800204600F028F8F6
:10466000242084F839002068C06820F400502168B4
:10467000C860204604F060F82068006920F490408B
:10468000216808612068406920F02A00216848619B
:104690002068C06840F400502168C8600020E063D2
:1046A000202084F8390084F83A000020CAE700008E
:1046B00010B586B00446142101A8FBF72BFE304943
:1046C000206888425AD100BF002000902D48006821
:1046D00040F480202B4908600846006800F48020E0
:1046E000009000BF00BF00BF002000902548103898
:1046F000006840F00400234910390860084600684B
:1047000000F00400009000BF00BF4FF44060019033
:1047100002200290002003900320049007200590BF
:1047200001A91948FEF76EF81848194908604FF0BA
:1047300000604860002116488160C1604FF48061CC
:1047400001610021416181614FF48071C1614FF4C9
:104750004031016200214162FDF77CFF08B1FDF7A5
:1047600031FA00BF0A486063846300BF002205215C
:104770002720FEF773FD2720FEF760FD06B010BD71
:1047800000480040403802400008024028600240D3
:104790009406002000BFFEE7014608684069C0F3A8
:1047A0008020B0B16FF480600A6850610020086317
:1047B000202081F83D00002081F83E00086C40F088
:1047C0000400086400BF002081F83C0000BF012005
:1047D00070470020FCE700002DE9F84304460F462F
:1047E00015469946DDE908862068006840F4806037
:1047F000216808602068006840F4807021680860C3
:10480000434600224FF001112046009600F02CF99B
:1048100050B12068006800F4807010B14FF400704F
:1048200020640320BDE8F88307F0FE0021680861DA
:10483000334642463D49204600F059F908B101206F
:10484000F0E700BF002000902068406900902068D9
:104850008069009000BF00BF32464146204600F00C
:10486000E8F950B1206C042805D12068006840F4B4
:104870000070216808600120D4E7B9F1010F03D16D
:10488000E8B22168086117E0C5F3072021680861D4
:1048900032464146204600F0CCF950B1206C042845
:1048A00005D12068006840F400702168086001208C
:1048B000B8E7E8B22168086132464146204600F078
:1048C000B8F950B1206C042805D12068006840F484
:1048D0000070216808600120A4E72068006840F4A7
:1048E000807021680860434600224FF00111204685
:1048F000009600F0B9F848B12068006800F48070B4
:1049000010B14FF40070206403208BE7F8B240F040
:10491000010021680861334642460449204600F000
:10492000E6F808B101207DE700207BE702000100E6
:104930002DE9F8430446884615469946DDE908679F
:104940002068006840F480702168086033460022C7
:104950004FF001112046009700F086F850B1206812
:10496000006800F4807010B14FF4007020640320E0
:10497000BDE8F88308F0FE00216808613B46324636
:104980002149204600F0B3F808B10120F0E700BF4C
:1049900000200090206840690090206880690090A5
:1049A00000BF00BF3A463146204600F042F950B100
:1049B000206C042805D12068006840F4007021684C
:1049C00008600120D4E7B9F1010F03D1E8B22168F2
:1049D000086117E0C5F30720216808613A463146AF
:1049E000204600F026F950B1206C042805D120683B
:1049F000006840F40070216808600120B8E7E8B260
:104A0000216808610020B3E70200010070B5044688
:104A10000D46164620E02046FFF7BEFE08B10120F5
:104A200070BD681CC0B1FDF7F3FF801BA84200D821
:104A300095B900202063202084F83D00002084F8F0
:104A40003E00206C40F02000206400BF002084F86D
:104A50003C0000BF0120E3E720684069C0F380000C
:104A60000028D8D00020DBE72DE9F04104460D46B0
:104A700017461E46DDF818801CE0701CD0B1FDF70B
:104A8000C7FFA0EB0800B04200D89EB90020206309
:104A9000202084F83D00002084F83E00206C40F087
:104AA0002000206400BF002084F83C0000BF0120EB
:104AB000BDE8F081C5F3074001280AD120684069AC
:104AC000A9B20840A9B2884201D101200BE0002020
:104AD00009E020688069A9B20840A9B2884201D1E2
:104AE000012000E00020B842C7D00020E0E72DE917
:104AF000F04104460D4616461F463DE020684069D9
:104B0000C0F38020E8B12068006840F4007021689C
:104B100008606FF4806021684861002020632020D5
:104B200084F83D00002084F83E00206C40F0040032
:104B3000206400BF002084F83C0000BF0120BDE8D5
:104B4000F081701CC0B1FDF763FFC01BB04200D8FC
:104B500096B900202063202084F83D00002084F8CE
:104B60003E00206C40F02000206400BF002084F84C
:104B70003C0000BF0120E2E7C5F3074001280AD14D
:104B800020684069A9B20840A9B2884201D1012039
:104B90000BE0002009E020688069A9B20840A9B2B2
:104BA000884201D1012000E000200028A6D000208A
:104BB000C5E770B504460D46164632E020684069E8
:104BC000C0F30010A0B16FF0100021684861002010
:104BD0002063202084F83D00002084F83E00206CF3
:104BE000206400BF002084F83C0000BF012070BD9D
:104BF000FDF70EFF801BA84200D895B90020206366
:104C0000202084F83D00002084F83E00206C40F015
:104C10002000206400BF002084F83C0000BF012079
:104C2000E5E720684069C0F380100028C6D0002066
:104C3000DDE770B504460D46164620E02046FFF736
:104C4000ABFD08B1012070BD681CC0B1FDF7E0FEEE
:104C5000801BA84200D895B900202063202084F84A
:104C60003D00002084F83E00206C40F020002064CD
:104C700000BF002084F83C0000BF0120E3E720686B
:104C80004069C0F3C0100028D8D00020DBE7000046
:104C900008B5072006F07BFD02E0642006F077FDF2
:104CA000FCF766F90028F8D102E0642006F06FFDF9
:104CB00006F0C8FC0028F8D19B4AA2F10C01101D97
:104CC000FCF770F99948984B103B994A9949009024
:104CD000994806F0CFFADFED990A9FED990A994AB3
:104CE0000021994800F09CFD914A92499748FBF7B2
:104CF0006FFE904890ED000A954880ED000A9548B7
:104D000080ED000A944880ED000A8A4890ED010A7F
:104D10008F4880ED010A8F4880ED010A8E4880EDB2
:104D2000010A844890ED020A894880ED020A894808
:104D300080ED020A884880ED020A002006F068FD36
:104D4000044607F00FFE8549086010218448C161C0
:104D5000FEF77CFE08B1FCF735FF08228149824846
:104D600003F07AF9012081490870DBE000BF4FF0C1
:104D7000FF31012007F0A2F90128F8D17C48007822
:104D800000F0040058B17A48007820F00400784917
:104D900008706549091D7348401CFCF7B5F8754853
:104DA000007800F0040060B17248007820F0040040
:104DB000704908705C4A1032A2F11C016E48FCF781
:104DC0004DF86E48007800F0040088B16B48007818
:104DD00020F004006949087053496948FCF7D0F98C
:104DE00051481038D0ED040AB0EE600A06F092FB8C
:104DF0004E484D4B103B4E4A4E4900904E4806F0EF
:104E000039FA544890ED000A534880ED000A5048A2
:104E100090ED000A4F4880ED000A90ED000A5948D5
:104E2000D0ED000A20EE200A4B48D0ED000A55488C
:104E300090ED011A00EE810A3E48D0ED000A51487B
:104E400090ED021A00EE810A414880ED000A4148C7
:104E500090ED010A404880ED010A3D4890ED010ABD
:104E60003C4880ED010A90ED010A4648D0ED000A69
:104E700020EE200A3848D0ED010A424890ED011A90
:104E800000EE810A2B48D0ED010A3E4890ED021A4F
:104E900000EE810A2E4880ED010A2E4890ED020AAC
:104EA0002D4880ED020A2A4890ED020A294880ED3B
:104EB000020A90ED020A3348D0ED000A20EE200AE3
:104EC0002548D0ED020A2F4890ED011A00EE810A24
:104ED0001848D0ED020A2B4890ED021A00EE810A24
:104EE0001B4880ED020A124B024613499FED260A29
:104EF0001648FBF7EBFE254B1A1F111F134806F04F
:104F000035F92348007800F001002149087048B1C4
:104F10000846007820F0010008700846007840F04C
:104F20000200087022E700004C0A0020900A0020CE
:104F30003C0B0020300B0020240B00200080894512
:104F400000A08C4508CD0008B80A0020480B0020BE
:104F5000180B00200C0B0020000B00203C00002050
:104F60007C04002040000020480000206500002054
:104F70006100002062000020320A0020630000204F
:104F80005B00002014CD00086F12833A600B0020F4
:104F90006400002010B50E480E49086003204860E8
:104FA00000210C488160C1604FF4102101614FF471
:104FB000001141610021017641768176C176017749
:104FC0004177FDF738F908B1FCF7FCFD10BD000092
:104FD000006400408401002010B50E480E490860AE
:104FE0000320486000210C488160C1604FF410210B
:104FF00001614FF400114161002101764176817613
:10500000C17601774177FDF716F908B1FCF7DAFDB3
:1050100010BD000000680040AC01002008B500BFD2
:10502000002000901A48006840F4001018490860F9
:105030000846006800F40010009000BF00BF00BFE9
:10504000002000900846006840F480000860084690
:10505000006800F48000009000BF00BF002205211E
:105060000C20FEF7FBF80C20FEF7E8F800221146B2
:105070003A20FEF7F3F83A20FEF7E0F80022052187
:105080003B20FEF7EBF83B20FEF7D8F808BD000008
:105090003038024000B595B01C2212490EA8FBF72B
:1050A00020F900210EA806F083FB0F4908601C229E
:1050B0000C491C3107A8FBF714F9002107A806F0DA
:1050C00077FB0A4908601C22064938316846FBF71D
:1050D00008F90021684606F06BFB0549086015B029
:1050E00000BD000074CC00080C0000200800002067
:1050F0000400002000B587B0142102A8FBF70AF9CC
:1051000000BF002001907448006840F0020072491E
:1051100008600846006800F00200019000BF00BF70
:1051200000BF002001900846006840F001000860C0
:105130000846006800F00100019000BF00BF00BFFA
:10514000002001900846006840F00800086008460A
:10515000006800F00800019000BF00BF00BF002001
:1051600001900846006840F00400086008460068A6
:1051700000F00400019000BF00BF00BF00200190BC
:105180000846006840F4807008600846006800F433
:105190008070019000BF00BF00BF00200190084652
:1051A000006840F0800008600846006800F0800059
:1051B000019000BF00BF00BF0020019008460068BA
:1051C00040F0400008600846006800F04000019090
:1051D00000BF00BF00BF002001900846006840F0FB
:1051E000200008600846006800F02000019000BF21
:1051F00000BF00BF002001900846006840F010008A
:1052000008600846006800F01000019000BF00BF71
:10521000012240213148FDF7F5FB012210213048E1
:10522000FDF7F0FB012211462E48FDF7EBFB402075
:105230000290012003900490059002A92748FDF7F1
:10524000E1FA09200290284803900120049002A965
:105250002248FDF7D7FA1020029001200390049015
:105260000220059002A91E48FDF7CCFA30200290DA
:105270001D4803900120049002A91C48FDF7C2FAC2
:1052800001200290039004900220059002A9154885
:10529000FDF7B8FA002205210620FDF7DFFF062002
:1052A000FDF7CCFF002205210920FDF7D7FF0920DB
:1052B000FDF7C4FF002205210A20FDF7CFFF0A20D9
:1052C000FDF7BCFF002205211720FDF7C7FF1720BF
:1052D000FDF7B4FF07B000BD3038024000180240AF
:1052E00000000240000402400000211000080240BB
:1052F00010B50B480B4908600B484860002109486D
:105300008160C1604FF48041016100214161816190
:10531000C1610162FDF782FB08B1FCF753FC10BDCF
:10532000005C004028040020801A060010B50F48D9
:105330000F4908604FF48270486000210C4881607A
:10534000C16002210161012141614902816138216D
:10535000C16100210162416281620A21C162FEF7DE
:1053600075FB08B1FCF72EFC10BD000000300140B9
:105370007C04002000B587B01C216846FAF7CAFFFC
:1053800015481649086000204860002113488160D4
:1053900041F28731C160002101618161FEF7F4FDB6
:1053A00008B1FCF70FFC0D48FFF7F5F808B1FCF762
:1053B00009FC6020009000200190029004900022DF
:1053C00069460648FFF763F808B1FCF7FBFB0348A2
:1053D000FEF7B4FF07B000BD0044014014060020F2
:1053E00000B595B0002011901290139014900F907A
:1053F00010901C2108A8FAF78DFF20216846FAF7C3
:1054000089FF384838490860A7204860002136489D
:10541000816044F61F61C1600021016141618161C9
:10542000FEF7B2FD08B1FCF7CDFB4FF480501190B0
:1054300011A92D48FEF732FE08B1FCF7C3FB2A483C
:10544000FFF7A9F808B1FCF7BDFB00200F90109002
:105450000FA92548FEF73EFD08B1FCF7B3FB60201D
:1054600008904FF4FA60099000200A900B900C907D
:105470000D900E90002208A91B48FFF708F808B10C
:10548000FCF7A0FB042208A91748FFF700F808B1B1
:10549000FCF798FB082208A91348FEF7F8FF08B1AB
:1054A000FCF790FB0C2208A90F48FEF7F0FF08B1AB
:1054B000FCF788FB0020009001900290039004907C
:1054C0004FF4005005900020079069460648FEF70B
:1054D000C6FC08B1FCF776FB0348FEF72FFF15B0BA
:1054E00000BD0000000001409405002000B595B00B
:1054F000002011901290139014900F9010901C2186
:1055000008A8FAF707FF20216846FAF703FF344896
:1055100034490860A720486000213248816044F681
:105520001F61C1600021016141618161FEF72CFDB5
:1055300008B1FCF747FB4FF48050119011A929489E
:10554000FEF7ACFD08B1FCF73DFB2648FFF723F85A
:1055500008B1FCF737FB00200F9010900FA92148ED
:10556000FEF7B8FC08B1FCF72DFB602008904FF463
:10557000FA60099000200A900B900C900D900E900C
:10558000002208A91748FEF782FF08B1FCF71AFBB2
:10559000042208A91348FEF77AFF08B1FCF712FBB2
:1055A000082208A90F48FEF772FF08B1FCF70AFBB2
:1055B0000020009001900290039004904FF400505E
:1055C00005900020079069460648FEF748FC08B1A0
:1055D000FCF7F8FA0348FEF7B1FE15B000BD000075
:1055E00000040140D405002010B50C480C490860A7
:1055F0000C4848604FF48051094881600021C16027
:105600004FF4806101610C21416100218161C16120
:10561000FFF714F808B1FCF7D5FA10BD00480040B8
:1056200054060020A086010000BFFEE7704700007E
:10563000B0EE401A10B99FED790A704790ED100A4C
:1056400080ED110A90ED0F0A80ED100AC0ED060AF8
:1056500080ED071A30EEC10A80ED0F0A01780029AB
:1056600075D190ED010AD0ED0F1A20EE210A80EDE0
:10567000090A90ED0A0AD0ED021A90ED0F2A01EE08
:10568000820A80ED0A0A90ED0D0A80ED0E0A90ED77
:105690000C0A80ED0D0A90ED0F0AD0ED101A30EED5
:1056A000610A80ED0C0A90ED030AD0ED0C1A20EE91
:1056B000210A80ED0B0A90ED0A0AD0ED051AB4EE2E
:1056C000E10AF1EE10FA04DD90ED050A80ED0A0A18
:1056D00010E090ED0A0AD0ED051AF1EE611AB4EE71
:1056E000E10AF1EE10FA05D290ED050AB1EE400A9A
:1056F00080ED0A0A90ED090AD0ED0A1A30EE210A6F
:10570000D0ED0B1A30EE210A80ED080A90ED080A60
:10571000D0ED041AB4EEE10AF1EE10FA04DD90EDDA
:10572000040A80ED080A76E090ED080AD0ED041A2C
:10573000F1EE611AB4EEE10AF1EE10FA6BD290EDDF
:10574000040AB1EE400A80ED080A64E0FFE7017840
:10575000012960D190ED0F0AD0ED101A30EE610AE8
:10576000D0ED011A20EE210A80ED090A90ED020A1F
:10577000D0ED0F1A20EE210A80ED0A0A90ED0D0AF5
:1057800080ED0E0A90ED0C0A80ED0D0A90ED0F0AE7
:10579000D0ED101AB0EE002A02EE610AD0ED111A17
:1057A00030EE210A80ED0C0A90ED030AD0ED0C1AC0
:1057B00020EE210A80ED0B0A90ED090AD0ED0A1ABD
:1057C00030EE210AD0ED0B1A30EE210AD0ED081A86
:1057D00030EE210A80ED080A90ED080AD0ED041A97
:1057E000B4EEE10AF1EE10FA04DD90ED040A80ED6A
:1057F000080A10E090ED080AD0ED041AF1EE611AE3
:10580000B4EEE10AF1EE10FA05D290ED040AB1EE21
:10581000400A80ED080A90ED080A0EE7000000003B
:1058200000B102B97047017092ED001A80ED011AC3
:1058300092ED011A80ED021A92ED021A80ED031A20
:1058400080ED040AC0ED050A9FED0C1A80ED0E1ADA
:1058500080ED0D1A80ED0C1A9FED081A80ED081AE4
:1058600080ED0B1A80ED0A1A80ED091A80ED111AED
:1058700080ED101A80ED0F1A00BFD3E70000000082
:1058800010B5234B1B685B6943F04003204C246830
:1058900063611F4B1B68DB6843F010031C4C2468DA
:1058A000E3601C4B1B681B6823F00103194C246840
:1058B000236007E0174B1B681B6823F00103154C9E
:1058C00024682360134B1B681B6803F00103002B43
:1058D000F0D1114B0F4C2468A3600E4B1B68D860AD
:1058E0000C4B1B6819610B4B1B685A60094B1B68FA
:1058F0001B6843F48023074C24682360054B1B6816
:105900001B6843F00103034C2468236010BD0000B2
:1059100054060020940600200448004010B5FB4BBC
:105920001B681B6823F00103F84C24682360F84BC4
:105930001B681B6823F00103F54C2468236007E013
:10594000F24B1B681B6823F00103F04C24682360B2
:10595000EE4B1B681B6803F00103002BF0D107E03E
:10596000EB4B1B681B6823F00103E94C24682360A0
:10597000E74B1B681B6803F00103002BF0D1E54BDC
:10598000DB6C1B68E44CA34275D9E24BDB6C1B68F3
:10599000E24CA34201D1202368E0DE4BDB6C1B68A4
:1059A000DD4C483CA34201D120235FE0D94BDB6CA6
:1059B0001B68DA4C6034A34201D1202356E0D54B5A
:1059C000DB6C1B68D44C1834A34201D120234DE07A
:1059D000D04BDB6C1B68D14C1834A34201D1DB14D3
:1059E00044E0CC4BDB6C1B68CB4C303CA34201D178
:1059F000DB143BE0C74BDB6C1B68C84C7834A3421C
:105A000001D1DB1432E0C34BDB6C1B68C24C303479
:105A1000A34201D1DB1429E0BE4BDB6C1B68BF4CF9
:105A20003034A34202D14FF400131FE0B94BDB6CBA
:105A30001B68B94C183CA34202D14FF4001315E087
:105A4000B44BDB6C1B68B54C9034A34202D14FF4CD
:105A500000130BE0AF4BDB6C1B68AF4C4834A34228
:105A600002D14FF4001301E04FF00063AA4C4C3C0C
:105A7000236076E1FFE7A74BDB6C1B68A74CA834DB
:105A8000A34275D9A34BDB6C1B68A44CA34201D184
:105A9000202369E09F4BDB6C1B689F4C483CA34272
:105AA00001D1202360E09B4BDB6C1B689B4C603476
:105AB000A34201D1202357E0964BDB6C1B68964C28
:105AC0001834A34201D120234EE0924BDB6C1B68BB
:105AD000924C1834A34201D1DB1445E08D4BDB6CB2
